:020000040800F2
:10000000B85F002049010008AB330008AD240008A8
:10001000A9330008090B0008956E000800000000D5
:10002000000000000000000000000000336700082E
:100030007F0B00080000000031670008A16800087D
:100040006301000863010008630100086301000800
:1000500063010008630100086301000863010008F0
:1000600063010008630100086301000863010008E0
:10007000630100080D0B000863010008190B00085C
:10008000250B0008310B000863010008630100081C
:1000900063010008630100086301000863010008B0
:1000A00063010008630100086301000863010008A0
:1000B0006301000863010008630100086301000890
:1000C0006301000863010008630100086301000880
:1000D00063010008096D0008716D0008D96D000802
:1000E0006301000863010008630100086301000860
:1000F0006301000863010008630100086301000850
:10010000630100086301000863010008630100083F
:100110000569000863010008630100086301000825
:1001200063010008630100083D0B0008490B00084B
:10013000DFF810D000F00CFC0048004745780008BC
:10014000AFF30080B85F00200648804706480047AC
:10015000FEE7FEE7FEE7FEE7FEE7FEE7FEE7FEE777
:10016000FEE7FEE70369000831010008244C254D35
:1001700025604FF0020080F3148823494868D0F8C6
:1001800000C00CF1240CBCE8FF008CF30988AE46DB
:1001900062B63047EFF3108072B67047EFF310800D
:1001A00062B6704780F31088704718484FF080514E
:1001B0000160BFF34F8FBFF36F8F7047EFF3108C69
:1001C00072B62DE9005005F027FEBDE8005000286A
:1001D000704602D18CF3108870478646EFF3098091
:1001E00020E9F01F084D2E683060686828600168BB
:1001F000B1E8F01F81F309888CF310887047000084
:1002000020ED00E00000F0F02001002004ED00E00F
:100210004FF010004FF000016FE04FF01100674AFF
:1002200012684FF0140140EA012012F0004F64D12F
:1002300000F0FF004FF0150140EA012012F0020F1C
:100240005BD100F0FF005E4A126812F4004F05D146
:1002500012F0800F07D14FF0000C08E059490968EF
:100260004FF4803C03E0584909684FF4803CB2FAEF
:1002700082F2564B13441A7840EA022040EA0C00FE
:100280003BE01EF0040F0CBFEFF30880EFF3098092
:10029000816911F8020C4FF000012EE04848006817
:1002A00010F4004F06D0474909684FF4803C00F431
:1002B000F8501BE04FF0000C18E04148006810F0C7
:1002C000800F06D0404909684FF4803C00F01B00C5
:1002D0000CE04FF0000C09E03948006840F20F31A3
:1002E0004FEA014100EA01004FF0000CB0FA80F043
:1002F000364B0344187840EA0C00354A4FF0080C9E
:100300001368002B1CD040F4003093FAA3F2B2FA29
:1003100082F20CF0010C02EB4C121EF1130F06D10D
:100320001AAB08B4EFF3108C2DE9F01F40E008ABD6
:1003300008B4EFF3108C2DE9F01F40F0805037E047
:1003400002F10402BCF1010CDAD1224A12884FF406
:10035000406302EA0302002ADFD11F4A126812F04A
:10036000010FDAD01EF1130F10D16A4698B0EFF3E7
:10037000098303F1680C4DF804CDEFF3108C2DE9DF
:10038000F01FB3E8F00F22E9F00F11E06A4688B0E1
:10039000EFF3098303F1200C4DF804CDEFF3108C3B
:1003A0002DE9F01F93E8F00F22E9F00F40F08050A4
:1003B0006B4672B671B601F0A7BE00BF2CED00E02F
:1003C00028ED00E038ED00E034ED00E060000020B2
:1003D00000E300E024ED00E00C0100202DE9F05FD7
:1003E0000546002092469B468846064681464024A4
:1003F0001BE0284641464746224600F020F8534677
:100400005A46C01A914110D311461846224600F0B0
:1004100002F92D1A67EB01084F4622460120002100
:1004200000F0F9F817EB00094E41201EA4F1010479
:10043000DFDC484631462A464346BDE8F09F202A85
:1004400004DB203A21FA02F00021704721FA02F37E
:10045000D040C2F12002914008431946704740EA5B
:1004600001039B0703D009E008C9121F08C0042A32
:10047000FAD203E011F8013B00F8013B521EF9D219
:100480007047D2B201E000F8012B491EFBD2704741
:100490000022F6E710B513460A4604461946FFF750
:1004A000F0FF204610BD30B505462A460B4612F82F
:1004B000010B13F8014B08B1A042F8D01CB1002881
:1004C00002D06D1CF1E7284630BD034611F8012B20
:1004D00000F8012B002AF9D1184670472DE9F04D9C
:1004E00081EA030404F0004B21F0004514464FF06C
:1004F000000A23F0004150EA050220D054EA01022C
:100500001DD0C5F30A570246C5F31303C1F3130008
:10051000C1F30A5640F4801543F48013A7EB060894
:10052000101BD64608F2FD3873EB050002D308F124
:10053000010801E092185B41B8F1000F03DA0020D6
:100540000146BDE8F08D00204FF480110646844638
:100550000EE0171B73EB050705D3121B63EB0503B6
:1005600006434CEA010C49084FEA300092185B41FF
:1005700050EA0107EDD152EA030012D082EA0400EA
:1005800083EA0501084305D0101BAB4106D20122C6
:10059000002306E000224FF0004302E06FF001026A
:1005A00053101AEB06004CEB085110EB0A0041EB1C
:1005B0000B01BDE8F04D00F03DB8C1F30A52C1F3A4
:1005C000130140F2FF3341F480119A4202DA002015
:1005D0000146704740F233439A42A2F2334202DCB2
:1005E0005242FFF72CBF00F016B830B50B4601465B
:1005F00000202022012409E021FA02F59D4205D3C2
:1006000003FA02F5491B04FA02F52844151EA2F16B
:100610000102F1DC30BD202A04DB203A00FA02F1AD
:10062000002070479140C2F1200320FA03F31943E0
:100630009040704710B5141E73F1000408DA401C96
:1006400041F1000192185B411A4301D120F00100F1
:1006500010BD2DE9F04D92469B4611B1B1FA81F2E1
:1006600002E0B0FA80F220329046FFF7D4FF044651
:100670000F4640EA0A0041EA0B0153465A46084336
:1006800013D0114653EA010019D0C8F14002504678
:10069000FFF7D5FE05460E46504659464246FFF73F
:1006A000BAFF084305D0012004E020463946BDE8E2
:1006B000F08D0020054346EAE0762C4337430A9844
:1006C0006305E40AA0EB08000022FD0A44EA47544F
:1006D0000A3002D500200146E9E7010510196941F9
:1006E000DDE9084500196941BDE8F04DA2E72DE9B3
:1006F000FE4F804681EA0300C00F0C46009021F0B7
:10070000004123F00045B8EB0200A94105D2404664
:10071000214690461C460B46024623F000401043FB
:1007200047D0270DC7F30A00C3F30A510290401ABD
:10073000019040286BDAC3F3130040F4801B00984B
:10074000924620B10023D2EB030A63EB0B0B019816
:100750005946C0F140025046FFF75DFF06460D4680
:1007600050465946019A00F005F910EB0800614126
:10077000002487EA115284EAE7731A4340D0009AB2
:1007800062B3019A012A4FEA075215DC001B61EBA4
:1007900002014FF0004202EA0752CDE90042001C7C
:1007A00041F5801132462B46FFF753FF03B0BDE8F9
:1007B000F08F40462146F9E7001B61EB0201001C67
:1007C00041F5801300185B412018A2F5001747EB94
:1007D000030140EAD570B6196D4111E06D084FEA8A
:1007E000360645EAC0754FEA0752001B61EB02016D
:1007F000001C41F5801149084FEA300000195141B1
:1008000032462B4603B0BDE8F04FFFF713BF009808
:10081000012240000023D0EB020263EBE07300985A
:1008200021464FEAE074B8EB000061EB0401E9E710
:1008300083F000435BE781F0004158E72DE9FE4F6C
:1008400081EA030404F0004421F0004100944FF0D9
:10085000000B23F0004350EA01045ED052EA030487
:100860005BD0C3F30A54C1F30A552C44A4F2F33409
:100870000194A0FB0254C1F3130141F48011C3F3AE
:10088000130343F4801301FB024400FB034E840A6C
:10089000970A44EA815447EA8357A4FB0768029504
:1008A0008D0A05FB07854FEA932C04FB0C542705A2
:1008B000029D4FEA065847EA1637B5EB08056EEB7E
:1008C000070C870E920E47EA811742EA8312A7FBB4
:1008D0000201B6EB0B0164EB00042B0D43EA0C3371
:1008E0005E1844EB1C50DA465146E7FB0201C5F3A3
:1008F00013044FEA0B3343EA14534FEA0432019CCA
:1009000043EA0603A4F10C040294009CCDE900B470
:10091000FFF79FFE03B0BDE8F08F00200146F9E726
:1009200030B5041E71F1000404DB4FF00044404276
:1009300064EB0101141E73F1000405DB1C464FF04B
:100940000043524263EB0403994208BF904230BD1A
:10095000064C074D06E0E06840F0010394E807000C
:1009600098471034AC42F6D3FFF7E6FB64800008EA
:1009700094800008202A06DBCB17203A41FA02F0C7
:1009800043EAE07306E041FA02F3D040C2F12002EC
:10099000914008431946704770B58C1810F8015BF8
:1009A00015F0070301D110F8013B2A1106D110F808
:1009B000012B03E010F8016B01F8016B5B1EF9D10C
:1009C0002B0705D40023521E0DD401F8013BFAE792
:1009D00010F8013BCB1A921C03E013F8015B01F8FD
:1009E000015B521EF9D5A142D8D3002070BD000092
:1009F00030B587B00520ADF804001EA00490204853
:100A00004FF480640090694603941E4802F096F902
:100A1000050002D001461CA010E00420ADF804003F
:100A200021A0049023480090164869460394001DB5
:100A300002F084F9050006D001461FA006F06AFA0C
:100A4000284607B030BD0620ADF8040022A004906F
:100A5000244800900B4869460394083002F06EF970
:100A6000040005D0014620A006F054FA2046E8E72D
:100A70000020E6E7566F6963655461736B00000000
:100A8000996E000808000020566F69636554617311
:100A90006B20637265617465206661696C65642CA6
:100AA0002025580A0000000053656E736F72546170
:100AB000736B0000BD67000853656E736F725461FD
:100AC000736B20637265617465206661696C65642F
:100AD0002C2025580A000000446973706C61795419
:100AE00061736B00810B0008446973706C61795409
:100AF00061736B20637265617465206661696C6502
:100B0000642C2025580A0000FEE70000014800F090
:100B1000C1B9000020040020014800F0BBB900006A
:100B200054030020014800F0B5B9000098030020EC
:100B3000014800F0AFB90000DC030020014800F0DC
:100B4000A9B90000CC020020014800F0A3B90000C0
:100B50001003002030B590F840500124AC40C56B24
:100B60006C60046863604368102B036803D099606D
:100B70000068C26030BD9A600068C16030BD7047D7
:100B80000024A146254641A14248FFF79EFC424E63
:100B90000620B08006F0E2FE322002F065F93F4FF9
:100BA0004FF4005BA04606F1140A59463C4800F099
:100BB00019FC387860B387F800807868414602787D
:100BC0001A2A27D0652A02D0662A23D121E0447848
:100BD000807814B1022C02D003E001241AE0092825
:100BE00002D0C01EC4B215E089F00109B9F1010FAD
:100BF00000D1FF2128488AF804100621143006F09D
:100C00002FFF8AF80600000A8AF8070001203070DA
:100C100000E044786D1CEDB2052D32D10025012C89
:100C20002FD11D4D1FA124351A48B5F9002006F01B
:100C300081F9B08006F092FE322002F015F96A8840
:100C40001BA1144806F076F9B08006F087FE32202A
:100C500002F00AF9AA8819A10E4806F06BF9B080D3
:100C600006F07CFE322002F0FFF8EA8816A109485F
:100C700006F060F9B08006F071FE322002F0F4F860
:100C80000125C82002F0F0F88FE700007061676569
:100C9000203000008C0100200000002034000020E3
:100CA0000010014078302E76616C3D256400000014
:100CB00078312E76616C3D256400000078352E7603
:100CC000616C3D256400000078362E76616C3D2510
:100CD0006400000070B5044604280DD2FFF75AFAEC
:100CE0000546064850F82410204600F009F828462A
:100CF000BDE87040FFF756BA70BD0000A45B00204D
:100D000070B50C00054607D06168FFF7F9FF28466B
:100D10002168BDE87040084770BD72B6FEE710B5A7
:100D200090F821100022022905D00421816380F867
:100D30002020012010BD01680B6823F00E030B601A
:100D400001680B6823F001030B6090F84030C46B1E
:100D5000012101FA03F3636080F8211080F820205C
:100D6000104610BD2DE9F05F90F8211000240229F3
:100D700003D004218163012485E001680A6822F020
:100D80000E020A6001680A6822F001020A603F4E02
:100D90003E4FB215DFF8F4C0DFF8F090DFF8ECA0BA
:100DA000DFF8E8B0DFF8E4E00168783F13011502EE
:100DB000ACF1640CA9F15009AAF13C0AABF1280B83
:100DC000AEF1140E4FF48018B14227D9B9420ED0BB
:100DD000614512D049451DD0514518D0594518D00C
:100DE000714501D1424615E0294EB14201D101229F
:100DF00010E0274E1436B14201D110220AE0244EF1
:100E00002836B14206D0224A3C32914201D11A46DC
:100E100000E02A461E49091F0A602BE0B94213D0A0
:100E2000614517D0494522D051451DD059451DD0A7
:100E3000714501D142461AE0B14202D14FF08072B1
:100E400015E0134EB14201D1012210E0104E1436CC
:100E5000B14201D110220AE00D4E2836B14206D02F
:100E60000B4A3C32914201D11A4600E02A4607491A
:100E700080394A60012180F82110002180F820107B
:100E8000416B01B188472046BDE8F09F80000240D9
:100E9000080402402DE9F05FC16B0A6801680B6825
:100EA000046C4FF0040808FA04F8844D844E854F12
:100EB000DFF814C2DFF81492DFF814A2DFF814B2DE
:100EC000DFF814E218EA020F65D05FEA437862D5D2
:100ED0000A68920603D40A6822F004020A60DFF866
:100EE000F0814FF48062016808F1140813011402C4
:100EF000414524D9A9420DD0B1420FD0B9421AD0F0
:100F0000614515D0494515D0514501D1120312E074
:100F1000594501D104220EE0714501D140220AE079
:100F20006D4D1435A94206D06B4A2832914201D149
:100F30001A4600E022466749091F0A6029E0A942D3
:100F400013D0B14215D0B94220D061451BD04945DC
:100F50001BD0514502D14FF4800217E0414502D128
:100F60004FF0806212E0594501D104220EE0714534
:100F700001D140220AE0584D1435A94206D0564A04
:100F80002832914201D11A4600E022464B490839E5
:100F90004A60C16A71E04FF0020808FA04F818EAE2
:100FA000020F70D05FEA83786DD50A68920606D486
:100FB0000A6822F00A020A60012180F82110DFF895
:100FC00010814FF40072016808F114081301140233
:100FD000414524D9A9420DD0B1420FD0B9421AD00F
:100FE000614515D0494515D0514501D1120312E094
:100FF000594501D102220EE0714501D120220AE0BB
:10100000354D1435A94206D0334A2832914201D1D8
:101010001A4600E022462F49091F0A6029E0A9422A
:1010200013D0B14215D0B94220D061451BD04945FB
:101030001BD0514502D14FF4001217E0414502D1B7
:101040004FF0007212E0594501D102220EE07145C5
:1010500001D120220AE0204D1435A94206D01E4AB3
:101060002832914201D11A4600E02246134908393C
:101070004A60002180F82010816A00291CD0BDE858
:10108000F05F0847FFE70825A540154214D01A076E
:1010900012D50A6822F00E020A6090F84020C36B55
:1010A000012101FA02F25A60816380F821100021C7
:1010B00080F82010016BE0E7BDE8F09F08000240D7
:1010C0001C00024030000240440002405800024030
:1010D0006C000240080402401C04024030B560B1BC
:1010E0001A4B026814219A4209D2194B1344B3FBDC
:1010F000F1F18900016417490AE0012030BD134B6A
:101100005B421344B3FBF1F1890001640F490839D4
:10111000C163022180F82110136843F6F0718B43FC
:10112000F0E901142143D0E902452C43214304692D
:1011300021434469214384692143194311600021FB
:101140004163012242770177084630BD080402401E
:10115000F8FFFDBF0000024070B5044690F8200083
:10116000002501280CD0012084F8200094F821608B
:101170000020012E06D084F820000225284670BDEC
:10118000022070BD022684F82160A06320680668F2
:1011900026F0010606602046FFF7DCFCE06A002826
:1011A0002068016802D041F00E0106E021F0040140
:1011B00001602068016841F00A010160206801684F
:1011C00041F001010160D9E770B5044600F018F95B
:1011D0000546601C02D004480078044400F010F971
:1011E000401BA042FAD370BD4C0000202DE9F84FFF
:1011F000DFF8C8910024A9F1040B23460F2709F159
:10120000040AABF1040ED1E00125A54006EA05026F
:10121000AA4276D1DFF8A8C14E68A6EB0C08664555
:101220002BD00DDC032E34D005DC36B3012E19D0C3
:10123000022E2FD11BE0112E16D0122E2AD119E02A
:10124000B8F5881F19D006DCB8F5803F15D0B8F581
:10125000801F1FD111E0B8F5001F0ED0B8F5041F94
:1012600018D10AE0CB6815E0CB681B1D12E0CB68F3
:1012700008330FE0CB680C330CE08B682BB1012BEB
:101280004FF0080303D0456104E0042302E0056148
:1012900000E00023FF2A01D8064601E000F1040621
:1012A0004FEA840501D9A5F12005D6F8008007FA98
:1012B00005FC28EA0C0803FA05F548EA0508C6F813
:1012C00000804D68ED0070D53E4DAE6946F00106D8
:1012D000AE61AD6924F0030605F0010500953A4DB5
:1012E00006EB050CDCF80850A607360F07FA06F8DF
:1012F00025EA0805DFF8D480404503D14FF0000807
:1013000025E052E0DFF8C880404502D14FF00108E7
:101310001DE0DFF8C080404502D14FF0020816E022
:10132000DFF8B480404502D14FF003080FE0DFF84A
:10133000AC80404502D14FF0040808E0DFF8A080FF
:10134000404502D14FF0050801E04FF0060808FAC9
:1013500006F848EA0508CCF808804D68D9F800601E
:10136000ED024D4601D5164300E096432E604D68D0
:10137000DAF80060AD02554601D5164300E0964309
:101380002E604D68DBF80060AD035D4601D5164365
:1013900000E096432E604D68DEF80060ED03754670
:1013A00001D5164300E096432E60641C0A68164679
:1013B000E2407FF429AFBDE8F88F00000804014047
:1013C0000000111000100240000001400008014020
:1013D000000C0140001001400014014000180140C1
:1013E000001C0140C26821EA02030A4043EA0241AC
:1013F000016170470AB1016170470904FBE7000011
:1014000001488068704700004C0000200248816855
:1014100002781144816070474C000020074810B5E5
:10142000016841F010010160032000F075F80F2001
:1014300000F006F800F024F8002010BD0020024063
:1014400070B50D4D04464FF47A712878B1FBF0F079
:101450000A490968B1FBF0F000F0DCFA48B9102C39
:1014600007D200222146501E00F036F800206C60A2
:1014700070BD012070BD00004C000020580000200D
:101480000C4808B5816941F001018161816901F071
:1014900001010091C16941F08051C161C06900F052
:1014A000805000900448416821F0E06141F00071F3
:1014B000416008BD0010024000000140002809DB27
:1014C00000F01F02012191404009800000F1E0205E
:1014D000C0F8001170470000F0B40E4B1B680C46BA
:1014E000C3F30223C3F10705042D00D90425191DF8
:1014F000072901D2002300E0DB1E012606FA05F1D0
:10150000491E214099409E40761E16403143F0BC52
:1015100005F024BD0CED00E0064900F00702086864
:101520004FF6FF03184040EA0220034A10430860C8
:10153000704700000CED00E00000FA052DE9F047CF
:101540000F46050061D0434E306800F00700B842F6
:1015500009D2306820F0070038433060306800F06E
:101560000700B84251D128683B4C810712D540078B
:1015700003D5606840F4E06060602878000703D518
:10158000606840F4605060606068A96820F0F00016
:10159000084360602878C00728D06868012810D008
:1015A0002168022810D0890700292EDA616821F00D
:1015B000030101436160FFF723FF804641F2883950
:1015C0000DE021688903EFE78901EDE7FFF718FFD8
:1015D000A0EB0801494502D90320BDE8F087606807
:1015E000696800F00C00B0EB810FEFD1306800F0BB
:1015F0000700B8420BD9306820F00700384330604C
:10160000306800F00700B84201D00120E5E72878F3
:10161000400705D56068E96820F4E0600843606031
:101620002878000706D56068296920F4605040EAF0
:10163000C100606000F038F86168084AC1F3031126
:10164000515CC8400649086006480068FFF7F8FE8C
:101650000020C2E70020024000100240A67A0008E5
:1016600058000020500000200448054900684968DF
:10167000044AC1F30221515CC84070475800002061
:1016800000100240B67A000804480549006849681D
:10169000044AC1F3C221515CC84070475800002081
:1016A00000100240B67A00080E4A51680E4801F058
:1016B0000C03042B11D0082B0FD10C48C1F383432A
:1016C000C903C05C0AD55168084AC1F34041921E63
:1016D000515C054A5043B0FBF1F070470449484360
:1016E000704700000010024000127A00967A00084D
:1016F00000093D002DE9F84F040070D02078C04D5E
:10170000C00749D06868C0F38100012807D0686825
:10171000C0F38100022809D16868C00306D5286893
:10172000800339D560680028E7D035E06068B0F5FF
:10173000803F0BD010B1B0F5A02F11D0286820F455
:1017400080302860286820F4802002E0286840F477
:1017500080302860606890B1FFF752FE06460AE0CC
:10176000286840F480202860F0E700BFFFF748FEBB
:10177000801B642873D828688003F7D50CE0FFF736
:101780003FFE064605E000BFFFF73AFE801B6428D7
:10179000F0D828688003F7D420789A4E80074FF05D
:1017A00001094FF0000839D5686810F00C0F07D018
:1017B0006868C0F38100022809D16868C00306D4B4
:1017C0002868800714D52069012808D110E0206915
:1017D000B0B1C6F80090FFF713FE074605E00AE136
:1017E000FFF70EFEC01B0228C4D828688007F7D573
:1017F0002868616920F0F80040EAC10028600DE027
:10180000C6F80080FFF7FCFD074604E0FFF7F8FD8F
:10181000C01B022823D828688007F7D42078000747
:101820002CD57948A169D9B1C0F80090FFF7E8FD3F
:10183000074604E0FFF7E4FDC01B02280FD8686AE2
:101840008007F7D571484FF4FA510068B0FBF1F00A
:10185000009000BF0098411E0091FAD20EE080E097
:10186000C0F80080FFF7CCFD074604E0FFF7C8FD95
:10187000C01B022875D8686A8007F7D42078400713
:1018800060D5E8690027C00008D4E86940F08050BE
:10189000E861E869012700F0805000905C48016829
:1018A000C90513D40168834641F480710160FFF7D4
:1018B000A7FD824606E000BFFFF7A2FDA0EB0A00ED
:1018C00064284ED8DBF80000C005F5D5E068012893
:1018D0000AD008B1052813D0286A20F00100286238
:1018E000286A20F0040002E0286A40F00100286223
:1018F000E06841F2883B98B1FFF782FD82460BE039
:10190000286A40F004002862EEE700BFFFF778FD88
:10191000A0EB0A0159455AD8286A8007F6D50CE091
:10192000FFF76EFD824605E0FFF76AFDA0EB0A01B6
:1019300059454CD8286A8007F6D41FB1E86920F0D1
:101940008050E861E06988B36968C1F381010229C8
:1019500044D00228C6F8608004D0FFF751FD044649
:1019600038E034E0FFF74CFD074604E0FFF748FDA0
:10197000C01B02282BD828688001F7D4206AB0F554
:10198000803F05D16868A16820F400300843686092
:10199000D4E908010843696821F4741108436860B8
:1019A000C6F86090FFF72CFD044606E025E000BF76
:1019B000FFF726FD001B022809D828688001F7D50B
:1019C0001BE000BFFFF71CFD001B022802D903200B
:1019D000BDE8F88F28688001F4D40EE00128F7D024
:1019E0006868226A00F48031914204D1616A00F48F
:1019F0007010884201D00120EAE70020E8E70000EB
:101A00000010024000004242800442425800002080
:101A10000070004010B5401EB0F1807F01D301205E
:101A200010BD4FF0E02460610F21601705F096FAB9
:101A30000020A06107202061002010BD704710B574
:101A400004460068406994F84110C0F3C010212991
:101A500011D180B12068143050E8001F21F08001BE
:101A600040E80012002AF5D1A06B08B1FFF757F942
:101A7000204605F01DF82068406994F84210C0F334
:101A80008010222911D180B12068143050E8001F45
:101A900021F0400140E80012002AF5D1E06B08B1C6
:101AA000FFF73DF9204604F0DCFF002010BD704731
:101AB000F8B5016804460868CA684B6910F00F0F52
:101AC0004FF0000559D003F0010602F49077374338
:101AD00065D0C10705D0D10503D5616C41F0010186
:101AE0006164410705D5D90703D0616C41F002015B
:101AF0006164810705D5D90703D0616C41F0040109
:101B00006164010707D502F02001314303D0616C05
:101B100041F008016164616C00293AD0800604D567
:101B2000900602D5204604F0D1FF20684069616C20
:101B3000C0F38010090700D460B3204604F091FF81
:101B400020684069400621D52068143050E8001F05
:101B500021F0400140E80012002AF5D1E06BA8B165
:101B60006D494163E06BFFF7FDF8002811D0E06B91
:101B7000416B01B0BDE8F040084783060FD59306DE
:101B80000DD52046BDE8F84004F0A0BF2046FFF781
:101B90008EFFF8BD2046FFF78AFF6564F8BD266B0F
:101BA0002023012E7CD1C6067AD5D60678D50868C2
:101BB0004868009048694FF00206400640D5E16B46
:101BC000086840680004000CE8D0A28D8242E5D984
:101BD000E085886920282DD020680C3050E8001F4F
:101BE00021F4807140E80012002AF5D120681430F9
:101BF00050E8001F21F0010140E80012002AF5D151
:101C00002068143050E8001F21F0400140E8001225
:101C1000002AF5D184F84230256320680C3050E862
:101C2000001F21F0100140E80012002AF5D1E06BFE
:101C3000FFF775F86663A08DE18D401A81B22AE046
:101C4000A08DE18D401A81B2E08D0028A6D0002938
:101C5000A4D022680C3252E8000F20F4907042E8C1
:101C60000007002FF5D12068143050E8002F22F033
:101C7000010240E80027002FF5D184F842302563A7
:101C800020680C3050E8002F22F0100240E80023BA
:101C9000002BF5D166632046FFF7D0FEF8BDFFE7C5
:101CA00005062BD5150629D594F841002128F5D134
:101CB000A068B0F5805F01D12069B0B1206A411CF5
:101CC0002162216800784860E08C401E0004000C0E
:101CD000E084E3D12068C16821F08001C160206800
:101CE000C16841F04001C160D8E7206A0088C0F3B4
:101CF00008004860206A801C2062E5E74006CDD5D8
:101D00005006CBD5CA68204622F04002CA6084F84B
:101D1000413000F0CDF9C1E71969000870B5040041
:101D200004D094F84100002510B106E0012070BDF8
:101D300084F84050204600F023F8242084F8410025
:101D40002068C16821F40051C160204604F038FFCA
:101D50002068016921F4904101612068416921F006
:101D60002A0141612068C16841F40051C160656485
:101D7000202084F8410084F842006563002070BD93
:101D80002DE9F04786B00025009501950295039551
:101D90000446954E036895480221032280274FF49C
:101DA00080684FF400694FF0100AB3424BD1C36909
:101DB00043F40023C361C36903F4002304938369DC
:101DC00043F0100383618069CDE9008100F01000C9
:101DD000CDE90320864E69463046FFF707FACDE984
:101DE0000095694630460295FFF700FA824E814819
:101DF000C6E90005C6E9025735617561B56130462F
:101E0000F561FFF76BF908B1FEF787FFE6637462CF
:101E1000794E784844362830C6E9025735617561F5
:101E2000B561F561C6E9000A3046FFF757F908B118
:101E3000FEF773FFA6630022114634207462FFF799
:101E40004BFB34203CE0DFF8B4C16D4E63453CD120
:101E5000836943F480438361836903F4804304937B
:101E6000836943F0040383618069039200F00400F6
:101E700004907015CDE9000169463046FFF7B6F9C8
:101E8000CDE90085694630460295FFF7AFF95A4E15
:101E90005C488836C6E90005C6E9025735617561B8
:101EA000B5613046F561FFF719F908B1FEF735FF66
:101EB000E6630022114625207462FFF70DFB252002
:101EC000FFF7FCFA06B0BDE8F087DFF83CC16345D8
:101ED0004DD1C36943F40033C361C36903F40033D4
:101EE0000493836943F0040383618069039200F0E3
:101EF000040004900420CDE9000169463046FFF754
:101F000075F90820CDE90005694630460295FFF7CE
:101F10006DF9394E3B48CC361430C6E90005C6E9A8
:101F2000025735617561B5613046F561FFF7D6F846
:101F300008B1FEF7F2FEE6637462344E3148C6E93A
:101F4000025735617561B5612830F561C6E9000A4F
:101F50003046FFF7C3F808B1FEF7DFFEA6630022A4
:101F6000114626207462FFF7B7FA2620A8E7284E0C
:101F7000B342A7D1C36943F48023C361C36903F4A7
:101F800080230493836943F0080383618069CDE96A
:101F9000008100F00800CDE903201E4E694630465E
:101FA000FFF724F9CDE90095694630460295FFF721
:101FB0001DF9164E134844362838C6E90005C6E90F
:101FC000025735617561B5613046F561FFF786F8F6
:101FD00008B1FEF7A2FEE6630022114627207462D4
:101FE000FFF77AFA27206BE7004C00400010024010
:101FF0000010014030040240CC02002000380140B3
:10200000000801405800024000440040DC0300206A
:1020100000480040000C014090F84230202B01D0D5
:102020000220704721B11AB10023036304F024BEDB
:10203000012070477047704770B5044690F8410022
:10204000202801D0022070BD49B342B32162A2848E
:10205000E28400206064212384F84130A56B114B99
:10206000AB62A56B104BEB62A56B104B2B63A36BA4
:102070005863256813462A1DA06BFFF76DF8216889
:102080006FF0400008602068143050E8001F41F0F5
:10209000800140E80012002AF5D1002070BD012027
:1020A00070BD0000176A0008596A00082969000815
:1020B000704770477047000010B500F0B1F808484D
:1020C00000F078F9002809D0022002F089FB0028EE
:1020D00004D1BDE8104003A004F01CBF10BD0000F7
:1020E0008D6600085469636B207374617274206696
:1020F00061696C6564210A00BFF34F8F30BFBFF385
:102100006F8F002070470000204C050C2668761C5D
:1021100026601F4CA689761CA6816080EE0709D038
:1021200061601C490968B1B1AD0706D50221218063
:10213000A26006E04FF0AB31F2E701222280096B8A
:10214000A1600320236101F08BFA114C012002F001
:1021500047FB20B106E000212180491EF0E70EA0D8
:1021600004F0D8FE204602F0ABF8204601F012FB46
:10217000204601F0A1FE204601F084FA02F0EEF8BC
:1021800001F0B8FD01F00CFC00F000F95C0000204B
:10219000A8070020200100202A2A2A2A2A2A2A2ADF
:1021A0002A2A2A2A2A457863657074696F6E204945
:1021B0006E666F726D6174696F6E2A2A2A2A2A2AE6
:1021C0002A2A2A2A2A2A2A2A0A00000070B5054645
:1021D0000024FDF7DFFF4FF0E022916952692A6089
:1021E00001B1541AFDF7DEFF2046002170BD00004A
:1021F000EFF305844FF0020002F0F2FA20B9224614
:10220000024903A004F086FEFEE70000D07A000831
:102210002573206972716E756D3A25640A0000009D
:1022200028480021294A016027494160022100BF56
:1022300040F82120491C9029FAD32549816025497D
:10224000C1602549016125494161254981612549CF
:10225000C162254981632549C163254941672549F3
:10226000C1672549C0F880102449C0F8841024496A
:10227000C0F828112349C0F82C112349C0F8D41004
:102280002249C0F8D8102249C0F8DC102149C0F812
:10229000101121490860091D08684FF6FF0210401F
:1022A0001E4A40F4E060104308601B481C3001687F
:1022B00041F4E021016018480C30016841F0100140
:1022C0000160704700A0002049010008F1210008CA
:1022D000110200081B020008BB0200089D02000852
:1022E000D902000883020008BD010008A1680008A7
:1022F0000D0B0008190B0008250B0008310B000816
:102300003D0B0008490B0008096D0008716D0008BD
:10231000D96D00080569000808ED00E00000FA0525
:1023200070B5FDF737FF0E4C2168491C2160FDF7A1
:1023300039FFEFF30585284600F01EF8094850F8EC
:10234000250000B180472846FFF7B4FEFDF722FFC5
:102350002168491E2160BDE87040FDF723BF0000E1
:102360005C0000206805002002480068002800D0BA
:10237000012070475C000020704710B5FDF70AFF90
:1023800003F038FCFDF7F2FE002010BDFDF702FF60
:10239000FEE74FF0E0210A6922F001020A61401EC7
:1023A00048614FF000008861086940F00100086151
:1023B0007047000010B501464FF0FF3003F08EFE6D
:1023C0000A49094808600B49094808604FF0E020B5
:1023D00009494161094AF02182F8141D00218161F7
:1023E00007210161002010BD00A24A043C01002029
:1023F0004019010038010020FEFFFF000FE000E05F
:1024000070B5144605460E460B46CA22204605F016
:1024100094FA20B15C221B491BA004F07BFD4FF015
:10242000CC302060A0194FF0043140F8441D4FF02B
:10243000053141604FF0063181604FF00731C160D6
:102440004FF0083101614FF0093141614FF0103117
:1024500081614FF01131C1610021C0E908154FF0D1
:10246000013181624900C1624FF0033101634FF0D5
:10247000123141630B4981630B49C1634FF0807195
:10248000016470BDBE7A00086D656D7365745F731D
:10249000206973206661696C65643A25735B256405
:1024A0005D0D0A008D23000899650008FEE7000015
:1024B0000348006808B1006B70470248704700008D
:1024C000200100200702000210B5040009D0FDF72A
:1024D00061FEA268211D8A4206D0FDF763FE064810
:1024E00010BD0548801E10BD0021A1606160FDF790
:1024F00059FE002010BD0000081C000228B1002178
:1025000002C0406000600846704701487047000004
:10251000061C000210B5012002F062F910B929A0D2
:1025200004F0F8FC2E491920086002F015FF0400A1
:1025300009D0022002F054F900283AD1214629A0FE
:1025400004F0E8FC35E0FFF7B7FD04F051F80400B3
:1025500005D0022002F044F958BB29A010E003F096
:1025600093FD002826D102F087FF002822D103F036
:1025700071F9040007D0022002F032F9C8B925A091
:1025800004F0C8FC15E003F08FFE040005D0022023
:1025900002F026F968B924A0F2E702F0E1F8002879
:1025A00008D103F02FF8040007D0022002F018F938
:1025B00008B1204610BD21A0E2E701F05FFB00203A
:1025C00010BD0000656E746572696E67206B657280
:1025D0006E656C20696E69742E2E2E0A0000000054
:1025E000140100204F734D656D53797374656D4907
:1025F0006E6974206572726F722025640A00000093
:102600004F735461736B496E6974206572726F7297
:102610000A0000004F735175657565496E69742035
:102620006572726F720A00004F735377746D72494E
:102630006E6974206572726F720A0000506D2069B5
:102640006E6974206661696C6564210A000000008F
:102650004268C1E900024268116041607047426807
:10266000C1E9000242681160416070474268C1E9F7
:10267000000242681160416070474268C1E900028F
:1026800042681160416070474268C1E900024268D7
:102690001160416070474268C1E900024268116000
:1026A00041607047D0E900121160D0E900124A6021
:1026B0000021416001607047D0E900121160D0E94B
:1026C00000124A6000214160016070472DE9F0412D
:1026D0000D4678B175B1082D00D2082504460027B3
:1026E000007A3E46800702D4FDF754FD0646A80F47
:1026F00009D102E00020BDE8F0813246294620469B
:1027000002F0CAF80746207A800702D43046FDF767
:1027100049FD3846EFE72DE9F0411546060012D095
:1027200089B185B1681E804605420CD1A8070AD13F
:10273000082900D20821281FCA43904203D84C1907
:10274000241FA00F02D00020BDE8F081307A0027BE
:10275000800702D4FDF71EFD07463A462146304663
:1027600002F09AF804462844401E20EA08008442F9
:102770000BD054F8042C011B42F0804244F8042C86
:1027800041F0804140F8041C0446307A800702D4AE
:102790003846FDF707FD2046D6E72DE9F0410F4604
:1027A000040004D01FB1A00701D1B80702D0012056
:1027B000BDE8F081207A01260025800702D4FDF7CC
:1027C000E9FC05463946204601F0F0FE28B1A0F1AB
:1027D0000801204602F0EAF90646207A800702D472
:1027E0002846FDF7DFFC3046E2E7000070B50D003B
:1027F00004464FF0000608D014B12168A14214D05D
:10280000022001F0EDFF40B10DE0022001F0E8FFF1
:1028100048B913A004F07EFB05E040F26272214645
:1028200018A004F077FB012070BD18230022194680
:10283000284605F082F82A461B49204600F002FE91
:10284000207A800702D4FDF7A5FC0646E06868619F
:10285000207A800702D43046FDF7A4FC002070BD2A
:1028600063616E277420757365204E554C4C206152
:1028700064647220746F207361766520696E666F80
:102880000A00000077726F6E67206D656D20706FB3
:102890006F6C20616464723A20307825782C206C4B
:1028A000696E653A25640A00115000082DE9F04769
:1028B0000E4604004FF0FF3911D04FF46E784645B4
:1028C0000DD944EA060080070CD0022001F088FFF1
:1028D00028B9042332462146184804F01BFB484619
:1028E000BDE8F0874FF46C710B460022204605F0DE
:1028F00024F8C4E90046A06804F56C7520F00300D4
:10290000A060A719A6F56E70083FC5E900702946BA
:10291000204602F0A5F94FF00040C7E90050C4F886
:10292000108031462046C4F80C8002F095FB002848
:10293000D6D0204602F0E0FBD1E70000BC7D0008C5
:102940007CB5B0B104460020009005460190207A85
:10295000800702D4FDF71EFC054601AA6946204601
:1029600002F000FA38B1DDE900122B46204602F0F1
:1029700037FA01207CBD207A800702D42846FDF773
:1029800011FC00207CBD08B14068704701207047F1
:102990000FB4022010B503AC01F022FF18B9214694
:1029A000029804F0B7FAFFF7F1FC00002DE9F047B8
:1029B0005FEA020908980D4606D04FF6FB7188427F
:1029C00005D92748BDE8F08725480930FAE7F5B171
:1029D000E8B1001DDFF88C8087B205FB07F1D8F85D
:1029E0000000FFF773FE060014D0FDF7D3FB1E4A6C
:1029F00001465068904210D10846FDF7D3FB31469E
:102A0000D8F80000FFF7C9FE1548401CDAE7144863
:102A10000A30D7E71248401ED4E7D0E90023A0F1DE
:102A20001C041A60D0E900235360E580278101234C
:102A300026600022A38022826582A281E281A0F129
:102A40000802526012604060006008304060006020
:102A50000846FDF7A7FB61890020C9F80010B1E71F
:102A60000306000244010020900000202DE9F041FF
:102A70000C0006464FF0000504D0182E05D3374849
:102A8000BDE8F08135480930FAE71C2300221946D9
:102A9000204604F052FFFDF77DFB3149034606EB6B
:102AA0004600096800EBC60001EB8002908878B10F
:102AB0002660D088A0801089E08090892081D0890C
:102AC0006081108AE081508AA0810121906911E023
:102AD000224D2D1F3CE0076B7E0904EB860607F0B4
:102AE0001F07D6F810C001FA07F74CEA070CC6F822
:102AF00010C0C06C4838861A3436ECD1106A0EE02B
:102B0000076B7E0904EB860607F01F07D6F814C092
:102B100001FA07F74CEA070CC6F814C0C06C483835
:102B2000861A2C36ECD1906A0EE0076B7E0904EB16
:102B3000860607F01F07D6F818C001FA07F74CEA17
:102B4000070CC6F818C0C06C4838861A2436ECD179
:102B50001846FDF727FB284692E700000E06000204
:102B60008C000020F8B51C4615460E46074602F0BC
:102B70002BFF002806D100212B4632463846009410
:102B800002F098FEF8BD7FB582B01C460D460646A1
:102B900004AA02F033FF002806D1032104AB2A4621
:102BA0003046009402F086FE06B070BD2DE9F0417B
:102BB0000E460546042807D236B1FDF7EBFA164C4F
:102BC0000746206918B112E01448BDE8F0811249A7
:102BD00080390868D0B900BF01EBC0022369536097
:102BE000401C22611028F7DB0D4800F0A9FE206987
:102BF0004168216150B1066054F82510416044F8E5
:102C000025003846FDF7CEFA0020DEE73846FDF70E
:102C1000C9FA0248001DD8E7A45B0020100000029A
:102C2000D50C00082DE9F04737480068002869D026
:102C3000FDF7B0FA824601F0FFFBDFF8D0904A467C
:102C4000C2E90601D9F80C00401C3CD1108814469A
:102C5000401C1080506800B18047A568A1466C6890
:102C6000AC422BD001F0E8FB0646884620E0214626
:102C7000103CD9F8080000F0B3FCA78817F0280F23
:102C800013D027F0A800A080390709D540F04000F4
:102C9000A08004F14800FFF705FD0020E063A06379
:102CA000B80702D4204603F021F86C68AC4205D086
:102CB000D4E90212711A78EB0200D8D2B9F80010E8
:102CC000491EA9F800104D46114CD5E9062320688D
:102CD00003F0E4FC01F0B0FB2268C2E908016FF0E8
:102CE00001025310C5E908230A4A12883AB10122A9
:102CF00003F07AF95046BDE8F047FDF753BAFDF707
:102D000054FAF7E7BDE8F0870C0100209800002096
:102D1000200100200401002005480068002805D09B
:102D200004480088002801D1FDF73FBA7047000031
:102D30000C01002004010020FFF71FBB70B5044602
:102D400000F018F8002812D12068094C616801EBE6
:102D5000C015FDF71FFA0646284602F0C7FF3046A9
:102D6000FDF720FAA06808B1FFF7D6FF002070BD7C
:102D7000040100202DE9F0410C46060014D0B4B146
:102D80002069B8B12168C1B1A28832481F2A09D888
:102D900002D1314A914205D1E068B0F5804F0FD998
:102DA0002C481D30BDE8F0812A48001DFAE729486B
:102DB000801EF7E72748801CF4E72648401CF1E70F
:102DC00010B94FF43471E160E068C11D814201D94E
:102DD000072100E00021084420F00700E060B0F582
:102DE000987F02D21B48C01CDCE702F037FEFDF7DB
:102DF000D1F91A4907464868884206D1154C384629
:102E00000E34FDF7CFF92046CCE7A0F14805FFF7D7
:102E100053FC3846FDF7C6F911480822E1680068FE
:102E2000FFF779FC020008D02146284602F050FB4B
:102E30000028B7D1296B3160B4E7FDF7ABF9044640
:102E400005F148010548FFF726FC2046FDF7AAF9E1
:102E50000448A7E7030200024547000828010020B4
:102E6000440100200002000370B50446FFF77CFA1D
:102E700008B10E4870BD0E48008808B10D4870BDFD
:102E80007CB1FDF787F90546094821461C300068EA
:102E900002F00EFE2846FDF785F9FFF73DFF002002
:102EA00070BDBDE8704000F00FB900000D020003D6
:102EB000040100200E0200022DE9F843002680469E
:102EC000009600F033FB00280DD13B4D696801EB03
:102ED000C814FDF75FF90746A088C10705D038463A
:102EE000FDF760F93548BDE8F883C10505D53846DA
:102EF000FDF758F931481D30F5E7C00609D5288897
:102F000038B1042001F06CFC10B92DA004F002F8D7
:102F10002E80204602F05EFFA08800040BD5E06DF5
:102F200004F15801884202D0483802F0F1FFA0882D
:102F300040F48071A18004F16400FFF7C5FA4FF0FE
:102F4000FF3026676066A088C10624D5C0051BD463
:102F50000120A080184846462C3004F14801006842
:102F6000FFF799FB2969686800EBC11112481C3012
:102F700001600E63A188026841F010019180006831
:102F8000E16AC162616C41643846FDF70BF9FFF7F5
:102F9000C3FE0020A7E7FFF78BFA206669462046AC
:102FA00002F046FD3846FDF7FDF813480099006829
:102FB000FFF7F3FBEDE70000040100200A02000226
:102FC000496E2063617365206F66207461736B20A6
:102FD0006C6F636B2C207461736B2064656C65741B
:102FE000696F6E206973206E6F74207265636F6DF8
:102FF0006D656E6465640A00440100202DE9F041AE
:103000000C00064606D02E4801698E4205D32D4895
:10301000BDE8F0812B48801FFAE7406800EBC61539
:10302000FDF7B8F807462879C00705D03846FDF700
:10303000B9F82448C01CEBE728686065A888A0841C
:10304000E888E084A86AA064E86AE06405F16400A6
:1030500004F1380307C883E80700286F6064A86B91
:1030600008B1C08800E030202063E86B08B14068F8
:1030700000E018206063A86BA062E86B2662E06243
:103080001F23202120466A6C04F0A2FC0020E07778
:10309000D5E90A10084420F007002065616D401A48
:1030A000A065304601F0F6FAE065401C06D000202D
:1030B00020663846FDF776F80020A9E70120F7E7FB
:1030C000040100200702000210B5FDF763F8044672
:1030D00002F0D2FF2046FDF765F8FFF71DFE002045
:1030E00010BD000010B50B4CD4E90001C04370EADC
:1030F000010007D001F0CCF9D4E90023801A61EB7C
:10310000030101E000200146034A0023FDF766F9B0
:1031100010BD0000C000002040190100214808B582
:10312000416941F001014161416901F001010091F2
:10313000416941F0020141614069002200F0020052
:10314000009011460D20FEF7C7F90D20FEF7B6F9E5
:10315000002211460F20FEF7BFF90F20FEF7AEF94F
:10316000002211461020FEF7B7F91020FEF7A6F94D
:10317000002211461120FEF7AFF91120FEF79EF94B
:10318000002211463A20FEF7A7F93A20FEF796F9F9
:10319000002211463B20FEF79FF9BDE808403B2086
:1031A000FEF78CB90010024070B586B000241C48B0
:1031B0000094019402940394816941F010018161AB
:1031C000816901F010010491816941F02001816160
:1031D000816901F020010491816941F0040181615C
:1031E000816901F004010491816941F00801816164
:1031F00080690C4E00F008004FF400550490002246
:1032000029463046FEF7F6F801200095CDE9010485
:103210000220039069463046FDF7E8FF06B070BD16
:10322000001002400010014010B5154C13480C214D
:1032300020604FF4165060600020A060E060C4E998
:103240000401A061E0612046FEF768FD08B1FDF7CA
:1032500064FD21686FF01000086021686FF0400085
:1032600008600848402241680548FEF7D5FE2068FE
:10327000C16841F01001C16010BD0000004C004069
:10328000AC0100204400002010B5154C13480C215F
:1032900020604FF4E13060600020A060E060C4E98D
:1032A0000401A061E0612046FEF738FD08B1FDF79A
:1032B00034FD21686FF01000086021686FF0400055
:1032C00008600848402241680548FEF7A5FE2068CE
:1032D000C16841F01001C16010BD0000003801401C
:1032E000F40100202C00002010B5154C13480C21CF
:1032F00020604FF4165060600020A060E060C4E9D8
:103300000401A061E0612046FEF708FD08B1FDF769
:1033100004FD21686FF01000086021686FF0400024
:1033200008600848402241680548FEF775FE20689D
:10333000C16841F01001C16010BD000000440040B0
:103340003C0200203400002010B5154C13480C211D
:1033500020604FF4E13060600020A060E060C4E9CC
:103360000401A061E0612046FEF7D8FC08B1FDF73A
:10337000D4FC21686FF01000086021686FF04000F5
:1033800008600848402241680548FEF745FE20686D
:10339000C16841F01001C16010BD0000004800404C
:1033A000840200203C000020FEE7FEE72DE9F04704
:1033B0001446DDE908911D460746012904D002297B
:1033C00004D017A0FFF7E4FA1C4E01E01B4E0836AC
:1033D000FCF7E0FE1A498046E9FB0145C7E90245D2
:1033E000736830463946834210D0D3E90226A71AC3
:1033F00075EB06070AD362406E4032430DD0006879
:10340000D0E90223A21A75EB0302F8D3FFF73CF9C7
:103410004046BDE8F047FCF7C5BE1846F6E7000099
:10342000536F7274206C696E6B20747970652065BF
:1034300072726F72203A2025750A0000E4000020A5
:10344000401901002DE9F0479146884604000746DF
:103450004FF000050DD02046FFF772FA80B1012031
:1034600001F0BEF900282AD116A0BDE8F04703F00C
:1034700051BD012001F0B4F9002820D119A0F4E7D2
:10348000387A800702D4FCF785FE0546A4F10800CF
:10349000796804F56C740E1807E0494620464246E8
:1034A0009047606820F040400444B442F5D3387A35
:1034B000800704D42846BDE8F047FCF773BEBDE89A
:1034C000F08700004C4F535F4D656D496E74656722
:1034D00072697479436865636B206572726F720AF2
:1034E00000000000696E70757420706172616D205B
:1034F0006973204E554C4C0A0000000010B5094C71
:1035000024681CB1A446BDE810406047022001F0C9
:1035100067F9002804D1BDE81040034803F0FABC65
:1035200010BD000068010020D47F0008094A014650
:1035300000205369994201D1074870479369994225
:1035400002D105480D30704712699142FBD3024801
:103550000D3870470401002014020002C10601D595
:103560000DA07047410701D50DA07047C10501D5D9
:103570000DA07047810701D50DA07047810601D5C8
:103580000DA07047010705D5000601D50CA07047B6
:103590000EA070470FA0704752756E6E696E67007F
:1035A000526561647900000045786974000000008C
:1035B00053757370656E640044656C61790000003A
:1035C00050656E6454696D650000000050656E645E
:1035D00000000000496D706F737369626C650000D4
:1035E000D1E900021060D1E9000242600020486089
:1035F0000860401EC1E902007047000070B5054632
:10360000012904D0022904D00DA0FFF7C1F9134C01
:1036100001E0124C0834FCF7BDFD0646D5E9020175
:10362000C24372EA010205D002F076FA294620462A
:10363000FFF7D6FF3046BDE87040FCF7B3BD000091
:10364000536F7274206C696E6B207479706520659D
:1036500072726F72203A2025750A0000E400002083
:1036600070B50546FCF796FD04460548416809B16A
:10367000284688472046BDE87040FCF793BD00000F
:103680006801002030B58FB004463C216846FCF745
:10369000FFFE206900220F21436A6846FFF72EFFD4
:1036A000012001F09DF810B90FA003F033FC0024B5
:1036B0004FEA0D0555F8240060B1012001F090F8A3
:1036C00028B955F8242021460FA003F023FC641CE0
:1036D0000F2CEFD3012001F083F8002802D111A0B4
:1036E00003F018FC0FB030BD2D2D2D2D2D20626163
:1036F000636B7472616365207374617274202D2D25
:103700002D2D2D0A000000006261636B74726163ED
:1037100065202564202D2D206C72203D20307825D9
:10372000780A00002D2D2D2D2D206261636B74729F
:1037300061636520656E64202D2D2D2D2D0A0000FE
:1037400070B5124C104D14232168114A086020688E
:103750005C21001D206001602068001D291A206086
:1037600004F0CCF848B920680949143020600A698F
:10377000291A482304F0C2F808B1012070BD20685E
:1037800048302060002070BDC45A0020580100203D
:10379000A807002010B50446012001F021F810B957
:1037A00025A003F0B7FB208801280CD002284FF099
:1037B000010039D001F014F800283BD123A0BDE866
:1037C000104003F0A7BBFEF773FE2A49096801EB1E
:1037D000C014012001F004F818B927A0616C03F0AF
:1037E00099FB012000F0FCFF18B927A0216B03F022
:1037F00091FB012000F0F4FF18B927A0216803F025
:1038000089FB012000F0ECFF18B927A0E16A03F062
:1038100081FB012000F0E4FF00280BD1A16ABDE884
:10382000104026A003F076BB00F0DAFF002801D19B
:1038300027A0C4E710BD000043757272656E742046
:103840007461736B20696E666F3A0A004578636530
:103850007074696F6E206F6363757220696E207378
:10386000797374656D20696E697420706861736521
:10387000210A0000080100205461736B206E616D05
:1038800065203D2025730A005461736B2049442054
:1038900020203D2025640A005461736B2053502082
:1038A00020203D2025700A005461736B2053542062
:1038B00020203D20307825780A0000005461736B89
:1038C0002053532020203D20307825780A00000026
:1038D000457863657074696F6E206F6363757220DD
:1038E000696E20696E74657272757074207068619B
:1038F0007365210A000000002DE9F0410F4C1746C6
:10390000DDF8188022681E460D461060206803FB13
:1039100007F2001D206002602068001D206007E0A3
:10392000014628464246904720686D1C304420607E
:10393000BD42F5D30020BDE8F08100005801002011
:1039400010B50446FCF726FC03494A6802B94C60EE
:10395000BDE81040FCF726BC6801002070B50F4C94
:1039600002460D682068690100F522760260206831
:10397000001D2060016021682846091D216001F0BA
:1039800023FDA84206D2216801EB4011281A2160CC
:1039900001F036F80020266070BD000058010020BC
:1039A00070B5ADF5207D012000F01AFF10B94AA0D6
:1039B00003F0B0FA4FF420710B460022684603F082
:1039C000BCFF6946142001F01BF806466D4614281A
:1039D00006D205EB4611C6F1140001F0F5FC0644D1
:1039E0000EB100245FE0012000F0FAFE002870D143
:1039F0003FA06CE0012000F0F3FE18B9214644A07E
:103A000003F088FA012000F0EBFE28B905EB441022
:103A1000017844A003F07EFA012000F0E1FE28B90D
:103A200005EB4410416844A003F074FA012000F053
:103A3000D7FE28B905EB4410816844A003F06AFA68
:103A4000012000F0CDFE28B905EB4410C16844A068
:103A500003F060FA012000F0C3FE28B905EB441022
:103A6000016944A003F056FA012000F0B9FE28B91C
:103A700005EB4410416944A003F04CFA012000F02A
:103A8000AFFE28B905EB4410816947A003F042FA64
:103A9000012000F0A5FE28B905EB4410C1694AA039
:103AA00003F038FA641CB442A4D34E480068FEF711
:103AB00047FF30B9012000F093FE10B94AA003F08F
:103AC00029FA012000F08CFE002802D150A003F05A
:103AD00021FA0DF5207D70BD0D0A6D656D6F72794F
:103AE00020706F6F6C7320636865636B3A0A000027
:103AF000616C6C206D656D6F727920706F6F6C20DA
:103B0000636865636B20706173736564210A0000EC
:103B1000706F6F6C206E756D202020203D20256415
:103B20000A000000706F6F6C20747970652020208F
:103B30003D2025640A000000706F6F6C2061646492
:103B4000722020203D20307825780A00706F6F6C3D
:103B50002073697A652020203D20307825780A007E
:103B6000706F6F6C20667265652020203D20307874
:103B700025780A00706F6F6C20626C6B4E756D203B
:103B80003D2025640A000000706F6F6C2065727222
:103B90006F72206E6F6465206164647220203D2026
:103BA000307825780A000000706F6F6C20657272A3
:103BB0006F72206E6F6465206C656E2020203D2042
:103BC000307825780A000000706F6F6C2065727283
:103BD0006F72206E6F6465206F776E6572203D2076
:103BE00025640A004401002073797374656D2068B0
:103BF000656170206D656D636865636B206F7665C8
:103C0000722C20616C6C20706173736564210A00F2
:103C10006D656D6F727920706F6F6C20636865637E
:103C20006B20656E64210A0070B5114CFF221148AB
:103C30006368194603F081FE216841F2D4000E4EFC
:103C400008602068001D0025C4F8000006EB05127E
:103C5000506818B11078D168926890476D1C062D95
:103C6000F4D32168062008602068001D206070BD24
:103C700058010020F0490020C45A0020144810B513
:103C8000182181601421C16012490160002212498B
:103C9000104600F081FA114A1149012000F07CFA27
:103CA0000B4A10490832022000F076FA00220E4931
:103CB000032000F071FA064A0C490C32052000F08E
:103CC0006BFABDE810400A490320FEF76FBF000001
:103CD00058010020F049002041370008140100205D
:103CE000A9420008A13E0008E94100085D3900082A
:103CF000293C00082DE9F043A9B01C223F4903A844
:103D0000FCF7ADFB3D491C221C310AA8FCF7A7FBC0
:103D10003BA119ABD1E90001CDE91F013AA0D0E9DF
:103D20000010CDE921103AA0D0E90010CDE9231010
:103D300039A107C983E807003AA21CAB07CA83E888
:103D400007003BA1D1E90001CDE925013AA0D0E966
:103D50000010CDE927101FA8119021A8129023A8C8
:103D6000139019A814901CA8159025A8169027A8A0
:103D70001790012000F034FD10B931A003F0CAF80B
:103D800000250DF10C080DF1280900BF58F8256039
:103D900059F82540012000F023FD38B911A8234629
:103DA00050F8251032462DA003F0B4F8A7080024DF
:103DB00013E000BF00F014FD20B956F8241035A020
:103DC00003F0A8F844B1200706D1012000F008FD57
:103DD00010B932A003F09EF8641CBC424FF0010001
:103DE000E8D300F0FDFC10B92CA003F093F86D1C93
:103DF000072DCBD329B0BDE8F0830000E87A000896
:103E0000656E61626C65000070656E64696E670066
:103E100061637469766500007072696F72697479A4
:103E200000000000657863657074696F6E000000C3
:103E30007368637372000000636F6E74726F6C005E
:103E40000D0A4F5320657863657074696F6E204E5C
:103E50005649432064756D703A0A0000696E7465B6
:103E6000727275707420257320726567697374654A
:103E7000722C206261736520616464726573733AA9
:103E80002025702C2073697A653A20307825780ACD
:103E90000000000030782578200000000A000000B3
:103EA00008B50A68034900911C230121FFF724FD8E
:103EB00008BD00006D2A000810B50446012000F07E
:103EC0008FFC10B954A003F025F8012000F088FC05
:103ED00020B92069016C56A003F01CF8012000F005
:103EE0007FFC20B92069C16B56A003F013F80120B4
:103EF00000F076FC20B92069416A57A003F00AF867
:103F0000012000F06DFC20B92069816A57A003F000
:103F100001F8012000F064FC20B92069C16A58A0B2
:103F200002F0F8FF012000F05BFC20B92069016B72
:103F300058A002F0EFFF012000F052FC20B92069E8
:103F4000416B59A002F0E6FF012000F049FC20B9C6
:103F50002069016859A002F0DDFF012000F040FC5B
:103F600020B9206941685AA002F0D4FF012000F076
:103F700037FC20B9206981685AA002F0CBFF0120EC
:103F800000F02EFC20B92069C1685BA002F0C2FFDE
:103F9000012000F025FC20B9206901695BA002F036
:103FA000B9FF012000F01CFC20B9206941695CA028
:103FB00002F0B0FF012000F013FC20B920698169F4
:103FC0005CA002F0A7FF012000F00AFC20B92069E4
:103FD000C1695DA002F09EFF012000F001FC20B944
:103FE0002069816B5DA002F095FF012000F0F8FBD5
:103FF00020B92069016A5EA002F08CFF012000F068
:10400000EFFB002806D12069416CBDE810405DA09F
:1040100002F080BF10BD0000457863657074696F61
:104020006E207265672064756D703A0A00000000AA
:10403000504320202020202020203D20307825784B
:104040000A0000004C5220202020202020203D206B
:10405000307825780A0000005350202020202020AE
:1040600020203D20307825780A00000052302020A2
:104070002020202020203D20307825780A000000D4
:10408000523120202020202020203D20307825780B
:104090000A000000523220202020202020203D2035
:1040A000307825780A00000052332020202020207C
:1040B00020203D20307825780A000000523420204E
:1040C0002020202020203D20307825780A00000084
:1040D000523520202020202020203D2030782578B7
:1040E0000A000000523620202020202020203D20E1
:1040F000307825780A000000523720202020202028
:1041000020203D20307825780A00000052382020F9
:104110002020202020203D20307825780A00000033
:10412000523920202020202020203D203078257862
:104130000A000000523130202020202020203D2085
:10414000307825780A0000005231312020202020CC
:1041500020203D20307825780A000000523132209E
:104160002020202020203D20307825780A000000E3
:104170005072694D61736B2020203D203078257886
:104180000A000000785053522020202020203D209B
:10419000307825780A00000010B506280CD259B1F5
:1041A0000A4B03EB00135C68012C04D003F8040BEA
:1041B000012083E8070010BD022000F011FB002859
:1041C000F9D1BDE8104002A002F0A4BEC45A0020FC
:1041D00048616C4578635265676973746572204500
:1041E00052524F52210A000070B5294D2023294A0E
:1041F000296801F5B674086028684FF4B271001D93
:10420000286001602868001D211A286003F076FBF1
:10421000B0BB286820232030211A1F4A286003F0F1
:104220006DFB68BB286820232030211A1B4A2860B8
:1042300003F064FB20BB2868F0232030211A184AC1
:10424000286003F05BFB28680C23F030211A154A24
:10425000286003F053FB98B92868124A0C30211AE1
:1042600004230C32286003F049FB48B928680D4A42
:10427000001D211A0423143A286003F03FFB08B103
:10428000012070BD2868001D2860002070BD00005E
:104290005801002000E100E000E200E000E300E05F
:1042A00000E400E018ED00E008B50A680349009159
:1042B00064230021FFF720FB08BD0000FD2F00084C
:1042C0003EB5144A044607CA8DE80700012000F0F5
:1042D00087FA18B9618810A002F01CFE012000F0D6
:1042E0007FFA18B910A0A16802F014FE012000F0B6
:1042F00077FA28B920885DF820100FA002F00AFE96
:10430000012000F06DFA002803D10FA0616802F0CF
:1043100001FE3EBD207B00085479706520202020DE
:1043200020203D2025640A0054687264506964208E
:1043300020203D2025640A005068617365202020FC
:1043400020203D2025730A004661756C7441646429
:1043500072203D20307825780A000000F0B585B045
:1043600001F0A4F90025204E37E0706800EBC51479
:104370002079C00730D1012000F032FAA8B9206BB3
:1043800000F088F90246A088FFF7E8F80346206F9E
:10439000E16A2768CDE90310CDE90127A06A009002
:1043A000E28812A0216B02F0B5FDA06B28B1C7888E
:1043B000012000F015FA18B106E04FF6FF77F7E795
:1043C000394619A002F0A6FD012000F009FA18B93B
:1043D00018A0616C02F09EFD6D1C30698542C4D34B
:1043E00005B00020F0BD000004010020256420205D
:1043F00020202564202020202573202020203078B4
:104400002578202020203078257820202020307822
:104410002578202020203078257820202020307812
:1044200025782020202000003078257820202020AA
:104430000000000025730A0010B5094CD4E90A10E9
:10444000C94371EA000107D000F022F8D4E90A2339
:10445000801A61EB030110BD0020014610BD000071
:104460009800002010B5094CD4E90010C94371EA46
:10447000000107D000F00CF8D4E90023801A61EBAA
:10448000030110BD0020014610BD0000C000002047
:104490002DE9F84F4FF00009CDF80090FBF77AFEB8
:1044A00082466846FDF792FE194AD2E90E74D2E9B7
:1044B0000C63A4463D184C41B5EB060874EB0308A9
:1044C00008D2009D7D194CEB090CC2E90E5C2D1839
:1044D0004CEB0104A81B74EB03000FD20120FFF783
:1044E000BFF8FBF757FE022000F07AF928B9094B14
:1044F000812209A112A002F00DFDFEE7C2E90C54D1
:104500005046FBF74FFE28462146BDE8F88F0000D5
:1045100098000020577B00082E2E5C436F72655C6C
:104520004C6974654F535C6B65726E656C5C73723D
:10453000635C6C6F735F73636865642E6300000077
:10454000415353455254204552524F522120257316
:104550002C2025642C2025730A0000002DE9F0474B
:10456000114D04460E4605F10808FBF713FE81467F
:1045700022463346284600F075F807460D46224687
:104580003346404600F06EF804460E464846FBF7B8
:1045900009FE381B75EB060103D238462946BDE8F3
:1045A000F08720463146FAE7E400002010B551F8C4
:1045B000044C0246084663001DD5002C07DA022091
:1045C00000F00EF9B0B9234640F20B520EE024F091
:1045D0008044A00703D1881A0838A0420CD20220D8
:1045E00000F0FEF830B9234640F21352034904A00C
:1045F00002F090FC002010BD081B10BD9D7B000840
:104600005B25733A25645D67617053697A653A305A
:10461000782578206572726F720A000010B5012843
:1046200006D0022806D0022000F0DAF828B107E010
:10463000044810BD0348083010BD03A002F06AFC16
:10464000002010BDE4000020496E76616C69642092
:10465000736F7274206C696E6B2074797065210AB7
:104660000000000010B54468844202D108480114DB
:1046700010BD4DF2F020101843F10001D4E90232D0
:10468000C41A71EB0204F3D21846114610BD0000A3
:104690000E2DFFFF70B5144D0446686800EBC4137F
:1046A000DA6A1168B1F1CC3F04D0022000F098F82A
:1046B00080B116E000EBC410114600684FF0CA3418
:1046C000091D884202D90D68A542F9D0986A891A55
:1046D000401A70BD686800EBC410416C03A002F082
:1046E00019FC4FF0FF3070BD0401002043555252B9
:1046F000454E54207461736B20257320737461637D
:104700006B206F766572666C6F77210A000000007F
:104710000848406938B10849B0FA80F001EBC000A0
:10472000406848387047054805490068096800EB4B
:10473000C110704798000020BC070020080100202D
:1047400018010020054C00BF01F088F9E06808B1AD
:104750008047F9E7FDF7D0FCF6E7000004010020F0
:1047600000B587B0182300221946684603F0E5F823
:104770000D4800904FF4A06003900CA004901F20FF
:10478000ADF8040069460C48FEF7F4FA002808D199
:10479000094814384168406901EBC01001F0CCF9B8
:1047A000002007B000BD00004547000849646C6563
:1047B000436F7265303030001801002010B5074C8F
:1047C000FBF7E8FC617809B1618819B1FBF7EAFCF5
:1047D000002010BDFBF7E6FC012010BDA049002021
:1047E00010B50446022801DD012010BD012C0CD0BB
:1047F000601E042809D80120FFF7F2FF28B90448F9
:1048000050F8241003A002F085FB002010BD00002A
:10481000700100205B25735D0000000000F56C73E3
:1048200042688B4204D81044884201D90120704765
:104830000020704770B5054608680C46816819B1BC
:104840002846FFF7EBFF40B12068C16819B1284640
:10485000FFF7E4FF60B1002070BD0220FFF7C0FF4A
:1048600090B9206840F20A6208498368084809E064
:104870000220FFF7B5FF38B920684FF4C262034940
:10488000C368044802F046FB012070BDAA7B000803
:10489000B07E00081C7E0008F8B50B31174621F0E9
:1048A000030106460D466A4600F01EF904001AD0C0
:1048B00002463046009900F0E7FA616805F1100001
:1048C000814204D32A462146304600F027FD606825
:1048D00040F0004020F040416060304600F06CFD48
:1048E00004F10800F8BD0220FFF77AFF10B9114863
:1048F00002F010FB307A800702D43846FBF752FCF6
:10490000304600F0F3F9307A800701D4FBF742FC1F
:104910000220FFF765FF20B92A46074907A002F0E9
:10492000F9FA0220FFF75CFF10B9024802F0F2FA30
:104930000020F8BD4C7D0008927B00085B25735D6C
:10494000204E6F207375697461626C6520667265B4
:104950006520626C6F636B2C20726571756972657E
:104960002066726565206E6F64652073697A653AAA
:1049700020307825780A00000168C8B2192803D8C9
:10498000034A1043814201D0012070470020704744
:10499000005A5AA52DE9F0410D46044600F56C7702
:1049A000416808380844804602462346394628466E
:1049B00000F058FA10B3686800281FDA20F0404071
:1049C0004619234642463946304600F04BFAA8B114
:1049D0003068A84212D1BD420DD023464246394626
:1049E000286800F03FFA48B12868416821F040414A
:1049F0000844A84202D10020BDE8F0810120FBE775
:104A00002DE9F04107460A480E460025446809E0B2
:104A10003146204600F00EF86D1C2036BD4203D210
:104A2000D4F8AC43002CF3D12846BDE8F081000057
:104A3000440100202DE9F8430E4604464FF00009DA
:104A400020234FF0FF384A461946304602F075FFE2
:104A5000207A800702D4FBF79DFB8146012030704D
:104A6000206870606068B0602169606804F56C75EA
:104A7000401AF0606168A4F108000F181FE0306967
:104A8000401C30616868002805DA20462968FFF775
:104A9000C5FE30B10FE0694620460095FFF7CAFE1B
:104AA00048B105F108007061686820F0404008389E
:104AB000C6E9060805E0686820F040400544BD42AC
:104AC000DDD3207A800704D44846BDE8F843FBF7DD
:104AD00069BBBDE8F883C143491C0840B0FA80F0C7
:104AE000C0F11F0080B270472DE9F041064617461D
:104AF0008846084600F04EF8DF2504461F2809D3F3
:104B00000146404600F0DAFBE100F8390D1805F1E6
:104B100020041F35600906EB800004F01F0201210C
:104B200040699140491E884306D0FFF7D4FF24F026
:104B30001F010844DF2813D104F12000641CA042A7
:104B400001D91F2000E00020204420F01F040EE0C7
:104B5000600906EB8000406940B1FFF7BCFF2044CC
:104B6000386006EB8000006BBDE8F0812034DF2C5C
:104B7000EED3DF2D05D006EB85003D604146006B8E
:104B800005E00020F0E742688A42EDD2C0680028C4
:104B9000F9D1E9E7802802D28008401E7047B0FAB8
:104BA00080F0C0F11F0080B2183070472DE9F0414D
:104BB0000C460746FFF7EEFE060009D00220FFF77D
:104BC0000FFE10B918A002F0A5F93046BDE8F0813B
:104BD0006168386921F04041401A3861606820F00E
:104BE00040406060256855B16868002807DB2946A9
:104BF000384600F06DF8204600F066F92C466068F3
:104C000020F04040051909D06868002806DB2946D5
:104C1000384600F05DF8284600F056F9214638463F
:104C200000F01EF8D1E700004F734D656D467265C8
:104C30006520636865636B206572726F72210A007C
:104C400070B50546FFF7A6FF04461F2806D30146A8
:104C5000284600F033FB00EBC400D93870BD0000DB
:104C600070B505460C464868FFF7EAFF0146DF28A5
:104C700002D30BA0FDF78CFE05EB8102106B00B197
:104C800084600023C4E90230480905EB8000146306
:104C900001F01F030121426999400A43426170BD3E
:104CA00054686520696E646578206F662066726559
:104CB00065206C69737473206973206572726F72FA
:104CC0002C20696E646578203D2025750A0000005F
:104CD00070B505460C464868FFF7B2FF014622460C
:104CE0002846BDE8704000F0CFB8000030B58BB06A
:104CF0000446182105A8FBF7CBFB05A92046FDF7C4
:104D000075FD012825D00120FFF76AFD10B9124872
:104D100002F000F90120FFF763FD10B90F4802F01F
:104D2000F9F80120FFF75CFD002812D12046FDF7BD
:104D30002AFE0DF11C0C02469CE82B000DF1040C20
:104D40008CE82B0006980090059B0548216802F02E
:104D5000E1F80BB030BD0000FC7E0008C87C000804
:104D6000847F00082DE9F0410C460546416808386B
:104D70000F181646284600F0C5F905F56C7030602E
:104D800024E001682846FFF749FD48B120684068E3
:104D9000002814DB21462846FFF74CFD60B90EE0E1
:104DA0000220FFF71DFD38B9206840F221620A4950
:104DB00003680A4802F0AEF80120BDE8F0812068DF
:104DC00030602068416821F0404108442060B842CA
:104DD000D7D30020F1E70000C37B0008687E0008FD
:104DE0000C4606461F4615461146204600F076F84A
:104DF00008232A4619460A4802F080FD084808237D
:104E000022461946083002F079FD307A800702D434
:104E10003846FBF7C7F92A46214602A0FDF7B8FD40
:104E20007C0900204D656D6F727920696E7465672D
:104E30007269747920636865636B206572726F7242
:104E40002C20637572206E6F64653A203078257867
:104E50002C20707265206E6F64653A20307825785A
:104E60000A00000010B5814201D8904201D900200B
:104E700010BD4168002905DB01681846FFF7CEFC2C
:104E80000028F5D0012010BD30B500EB8104D368B7
:104E9000256B954210D12363D26812B10020906037
:104EA00030BD4A0900EB820001F01F030121426975
:104EB00099408A43426130BD9068C360D068002841
:104EC000F9D09168816030BD016843684A681A442E
:104ED0004A604168014400680860704738B50C4674
:104EE0000546A04206D10120FFF77AFC10B91CA0AC
:104EF00002F010F8686800284FF0010008DAFFF7A8
:104F00006FFC80B9D5E900121FA002F003F80AE097
:104F1000FFF766FC38B968680090D5E9023222A034
:104F2000296801F0F7FF606800284FF001000ADAF5
:104F3000FFF756FC002812D1D4E90012BDE8384032
:104F400023A001F0E7BFFFF74BFC002807D1606802
:104F50000090D4E9023225A0216801F0DBFF38BDC2
:104F60000A207468652062726F6B656E206E6F64D4
:104F70006520697320746865206669727374206E99
:104F80006F64650A000000000A2062726F6B656E34
:104F9000206E6F646520686561643A20257020206A
:104FA000307825782C2000000A2062726F6B656EC5
:104FB000206E6F646520686561643A20257020204A
:104FC0002570202025702020307825782C200000A6
:104FD00070726576206E6F646520686561643A2042
:104FE00025702020307825780A00000070726576E0
:104FF000206E6F646520686561643A20257020200A
:105000002570202025702020307825782C20000065
:10501000F0B5002540682C462F462E462B4620F042
:105020004042002804DB0126141E03D9234601E078
:1050300001271546086828440860486820444860ED
:105040008868984200D903468B60C8683844C860B5
:10505000086930440861F0BDF8B50A4618490546AC
:10506000AE184C6820461FE02046FDF78CFC20441B
:10507000A54201D8A64203D8854212D2864210D357
:105080000220FFF7ADFB50B92046FDF77CFC204421
:1050900000903246234629460AA001F03BFF01203A
:1050A000F8BD2046D4F8AC43002CDDD14A682AB1C3
:1050B000C0F8AC530020C5F8AC03F8BD4D60F9E76B
:1050C00044010020706F6F6C205B307825782C20B5
:1050D000307825782920636F6E666C696374207759
:1050E00069746820706F6F6C205B307825782C2095
:1050F00030782578290A00004FF46C710B460022A5
:1051000002F01BBC2DE9FC41054600680027A842BF
:1051100001D1A8070ED00220FFF762FB00285DD165
:1051200002B02946BDE8F04140F24B632C4A2DA065
:1051300001F0F0BE5FF0000605EB8600046B30E086
:1051400021462846FFF76AFBD8B1A16819B1284665
:10515000FFF764FBA8B1E16819B12846FFF75EFBD1
:1051600078B128462168FFF759FB50B1A00708D154
:10517000207A800705D1207B800702D12078800724
:105180000ED001270220FFF72BFB48B9D4E902011A
:10519000CDE90001224631461EA0236801F0BAFE87
:1051A000E468002CCCD1761CDF2EC5D3002F15D09F
:1051B0000120FFF715FB20B9294625A06A6801F0F8
:1051C000A9FE0120FFF70CFB002807D1D5E9031247
:1051D00002B02BA0BDE8F04101F09CBEBDE8FC810F
:1051E000DA7B000877726F6E67206D656D20706FD7
:1051F0006F6C20616464723A2025702C2066756E95
:10520000633A2025732C206C696E653A2025640A68
:1052100000000000467265654C697374496E6465F0
:10522000783A2025752C206E6F64653A2025702C05
:1052300020624E6F64653A2025702C20707265766E
:105240003A25702C206E6578743A2025700A00008B
:105250006D656D20706F6F6C20696E666F3A20709F
:105260006F6F6C416464723A2025702C20706F6FF0
:105270006C53697A653A20307825780A000000007E
:105280006D656D20706F6F6C20696E666F3A20706F
:105290006F6F6C57617465724C696E653A20307837
:1052A00025782C20706F6F6C43757255736564534D
:1052B000697A653A20307825780A000070B50C4686
:1052C00005461F2901D3802D0AD20220FFF788FA54
:1052D00020B92A46214605A001F01CFE002070BD21
:1052E000C000A1F11804E040083870BD666C206F62
:1052F000722073697A6520697320746F6F20736DF3
:10530000616C6C2C20666C203D2025752C20736907
:105310007A65203D2025750A0000000070B58C18C4
:10532000064621604868801A60604A60606820F024
:10533000404005192C606868002806DB2946304685
:10534000FFF7C6FC2846FFF7BFFD21463046BDE803
:105350007040FFF785BC000070B50B4C09484FF456
:10536000804529462060FDF7A1FA06460420FFF794
:1053700037FA20B92A4605A0216801F0CBFD304656
:1053800070BD00008C090020440100204C69746548
:105390004F532068656170206D656D6F7279206173
:1053A0006464726573733A25702C2073697A653A68
:1053B0003078256C780A0000026911440161C268E6
:1053C000914200D9C16070472DE9F0410746094874
:1053D00000240E46056808E03146284600F00CF827
:1053E000641C2036BC4202D2ED68002DF4D1204668
:1053F000BDE8F081400100202DE9F0470E4604464B
:10540000202300221946304602F097FAFAF7C2FE2E
:105410008146002030707460D4E900104843B060C9
:10542000206830616068B060D4E90101401AF06022
:10543000D4E9000104F1140500FB0158002712E033
:10544000A54201D345450BD32846FFF795FA38B15D
:10545000281D70612068001FB0612878F06105E0A8
:1054600020687F1C05446068B842E9D84846BDE81A
:10547000F047FAF797BE00002DE9F04111484FF4CC
:1054800010714060006010480068FDF71FF90D4D75
:105490002D1F286098B1002426462F1D296804EB93
:1054A000440001EBC0014C6001F8086B3868FDF75F
:1054B000CFF8641C182CF1D30020BDE8F08103481C
:1054C000FBE700008400002044010020001D0002D2
:1054D00070B504468868E2622064C868A062002053
:1054E0000D46A0630221E063A180A988E180A0604D
:1054F000E06029686163411E616620672969616413
:10550000A067E968206BFCF77BFF20604FF0FF305D
:10551000C4E9060004F16400FCF7F0FF68690028A4
:1055200007DA34F8040F40F4004024F8540B6460A8
:105530002460002070BD417831B1012907D00229D3
:105540000AD1C068C06904E0C068C06801E0C068F2
:105550004069002800D000477047000010B5C168BE
:1055600049B14078B8B1012817D0022817D0086A8D
:10557000BDE8104000470120FEF772F8FAF70AFE76
:105580000220FFF72DF928B9064BA72206A111A08A
:1055900001F0C0FCFEE78868EAE70869E8E7886987
:1055A000E6E70000ED7B00082E2E5C436F72655C21
:1055B0004C6974654F535C636F6D706F6E656E748C
:1055C000735C706F7765725C6C6F735F706D2E6368
:1055D00000000000415353455254204552524F524F
:1055E000212025732C2025642C2025730A0000001F
:1055F00018B10349C86000207047012070470000BF
:105600000401002070B5114D2823002219462846B8
:1056100002F093F90020287005F120046C62A5F1D6
:1056200010002C62FCF76AFF094800F06BFA0028B2
:105630000AD10848FFF7DCFF040005D100F024F888
:1056400005F12800E860204670BD0000A049002058
:105650007D5600085956000870B5074CFAF79AFDB8
:1056600005462046FFF77AFF2046FFF764FF2846ED
:10567000BDE87040FAF796BDA0490020014AC2E992
:10568000000170475001002006480021064A0160D1
:10569000C0E90112C0E90312C0E90512C16101624B
:1056A00041627047C8490020F920000810B5012068
:1056B000FFF796F810B9114801F02CFC0120FFF714
:1056C0008FF810B90EA001F025FC0120FFF788F833
:1056D00010B90DA001F01EFC0120FFF781F810B9F0
:1056E000104801F017FC0120FFF77AF8002804D1D8
:1056F000BDE810400CA001F00DBC10BD647C00089A
:1057000020206E616D650A002D2D2D20202D2D2D60
:105710002D2D2D2D2D2020202D2D2D2D2D2D2D2DE0
:1057200020202000207C000820202D2D2D2D0A0077
:105730002DE9F04116461D4611F003024FF000041A
:105740000DD0012A14D0032A19D00220FFF748F8FF
:10575000002826D1BDE8F0412BA001F0DBBB8289F7
:10576000C788531CBB4201D1848110E083810EE0C5
:10577000828902B9C288521E828192B207E0C28930
:10578000C788531CBB4201D1C48100E0C381038997
:10579000046802FB03444A0708D5C80703D03068F1
:1057A0002060BDE8F08120683060FAE7C90717D0B3
:1057B000211F2A685A500189324620462B6802F080
:1057C0009DF80400EDD00220FFF70AF80028E8D188
:1057D0002346FF22BDE8F041134914A001F09ABB13
:1057E000201F22461F5830463B46296802F086F8A3
:1057F000040007D00220FEF7F3FF0028D1D1234692
:10580000F622E7E72F60CCE7696E76616C69642069
:105810007175657565206F70657261746520747946
:105820007065210A000000002C7B000825735B25B1
:10583000645D206D656D637079206661696C656477
:105840002C206572726F722074797065203D20255E
:10585000750A000070B514484FF48464214600684E
:10586000FCF734FF114D2860E0B1214623460022A9
:1058700002F063F8281D0024406000604FEA000633
:1058800004EB4400296800EBC40001EB80014C816B
:105890001C313068FCF7E3FE641CA4B2182CEFD373
:1058A000002070BD024870BD440100208C00002023
:1058B000010600022DE9FF5F9B460E46044611F0EB
:1058C00001071BD000208246FAF764FC3A49814662
:1058D00004EB4400096800EBC40001EB8005A888D4
:1058E00070B1F0072889DBF800104FF00004A0F138
:1058F000040008D081420BD9304C58E00120E2E787
:105900002E4C0B3C53E0814202D22C4C0A344EE028
:1059100005EB4701088AC8B1401E08825B46314644
:105920002846029AFFF704FF05EBCA018869143183
:10593000884237D0483800F0EBFA4846FAF732FC94
:10594000FDF7EAF9002004B0BDE8F09F0E9828B1F9
:105950001B48008850B1194C0F3C28E0F00702D0DA
:10596000164C641C23E0154C083420E015480E99B1
:10597000D0F8008005EBC700143000F0B1FA4846BB
:10598000FAF710FCFDF7C8F9FAF704FC8146B8F8FD
:1059900004004106C2D5094C20F04001A8F80410CB
:1059A0000E3C04E005EB4A01088A401C0882484688
:1059B000FAF7F8FB2046C6E78C0000201506000227
:1059C000040100202001002010B5182801D30A4846
:1059D00010BD49B142B1106848B15BB1FCF7C4FCDD
:1059E00040B105480A3010BD0348401C10BD0248B4
:1059F000801C10BD002010BD0E06000210B5182836
:105A000001D30A4810BD41B1106848B15BB1FCF741
:105A1000ABFC40B10548401F10BD0448001D10BD3F
:105A20000248401D10BD002010BD00000E060002FF
:105A300070B5044680880D46C00506D404F14801BF
:105A40000548FCF728FE0120A080E06A002802D06B
:105A500028600020E06270BD280100202DE9F84395
:105A6000FAF798FB0646104D0027DFF8408013E058
:105A7000A0F14804FCF720FE694620460097FFF796
:105A8000D7FF3046FAF78EFB0099D8F80000FCF7F4
:105A900084FEFAF77FFB06466868A842E8D13046E4
:105AA000FAF780FBBDE8F8833001002044010020B4
:105AB000828842F020028280C160704710B50F4A90
:105AC000002000BF02EBC001401C496080B20960A9
:105AD0002028F7D30A4C002060610120FEF79EFDCC
